:100000000C942A000C9447000C9447000C94470071
:100010000C9447000C9447000C9447000C94470044
:100020000C9447000C9447000C946A030C9447000E
:100030000C9447000C9447000C9447000C94470024
:100040000C9447000C9447000C9447000C94470014
:100050000C94470011241FBECFE5D8E0DEBFCDBF12
:1000600010E0A0E6B0E0E0EAF7E002C005900D92F3
:10007000A236B107D9F720E0A2E6B0E001C01D9298
:10008000AD37B207E1F70E9455030C94CE030C94F0
:1000900000008AB38ABB8BB387608BBB87B38F6149
:1000A00087BB81B38F6181BB789483B78D6083BF39
:1000B00089B7826089BF8FEE8CBF78948FB58062DC
:1000C0008FBD8EB581618EBD86E990E097BD86BDFE
:1000D00083E990E099BD88BD08958091760082956E
:1000E000807F88BB83EA98E00197F1F700C00000A9
:1000F00080916000E2E0F0E0E81BF109EB59FF4F6E
:1001000020818DEC289F812D1124869586958695DA
:10011000880F982F990F990F890F281B22BB80E019
:1001200090E00CC021E028BBEBE5EA95F1F718BAA6
:10013000E6E1F1E03197F1F7000001968730910593
:100140008CF380916000E2E0F0E0E81BF109EB59EC
:10015000FF4F80819DEC899F912D11249695969556
:100160009695990F292F220F220F920F282F291BC6
:1001700090E0821B91096AE070E00E94A60362BBD6
:1001800080E090E00CC022E028BBFBE5FA95F1F797
:1001900018BAE6E1F1E03197F1F7000001968730F7
:1001A00091058CF380916000E1E0F0E0E81BF1093B
:1001B000EB59FF4F20818DEC289F812D11248695CE
:1001C00086958695880F982F990F990F890F281B70
:1001D00022BB80E090E00CC024E028BBFBE5FA9550
:1001E000F1F718BAE6E1F1E03197F1F70000019676
:1001F000873091058CF380916000E1E0F0E0E81B2E
:10020000F109EB59FF4F80819DEC899F912D1124BD
:10021000969596959695990F292F220F220F920F5A
:10022000282F291B90E0821B91096AE070E00E9450
:10023000A60362BB80E090E00CC028E028BBFBE591
:10024000FA95F1F718BAE6E1F1E03197F1F700001D
:100250000196873091058CF3089518BA88E292E0F0
:100260000197F1F700C00000E0916900F0E0EE595D
:10027000FF4F30819DEC399F812D11248695869505
:100280008695880F282F220F220F820F381B32BB32
:1002900081E088BBE6EFEA95F1F718BAE1EEF2E00B
:1002A0003197F1F70000E0916900F0E0EE59FF4F5F
:1002B0008081899F912D1124969596959695990FF9
:1002C000292F220F220F920F282F291B90E0821B2B
:1002D00091096AE070E00E94A60362BB82E088BBDD
:1002E000F6EFFA95F1F718BA81EE92E00197F1F77F
:1002F00000008091690082BB88E088BB96EF9A95E8
:10030000F1F718BAE1EEF2E03197F1F70000089545
:10031000C89974C0809170009091710084369105E5
:1003200040F4019690937100809370008BE78A955A
:10033000F1F780917000909171008436910540F141
:1003400080917B0090917C00892B11F58091610058
:100350008130F1F024E630E030937C0020937B0084
:100360008F5F8093610010926900813069F4A5E687
:10037000B0E09C91E2E6F0E0908311969C91119799
:10038000918312969C919283823010F010926100BA
:100390008091770090917800892B09F05BC084E60A
:1003A00090E09093780080937700809169008F5F50
:1003B0008093690090916100911104C0833010F026
:1003C00010926900913009F045C080916900833036
:1003D00008F440C01092690010926100A2E6B0E0FB
:1003E0008C91E5E6F0E0808311968C9111978183E2
:1003F00012968C9182831092680008958091770004
:1004000090917800892B81F08BE78A95F1F78091A4
:10041000770090917800019790937800809377000F
:10042000109271001092700080917B0090917C007E
:10043000892B81F08BE78A95F1F780917B00909171
:100440007C00019790937C0080937B001092710058
:10045000109270000895C99965C080916A009091CA
:100460006B00883E23E0920740F4019690936B0066
:1004700080936A008BE78A95F1F780916A009091EA
:100480006B00883E934061F48091790090917A00EE
:10049000892B31F488E290E090937A008093790080
:1004A0008091720090917300892B09F067C088E2F7
:1004B00090E09093730080937200809161008111AD
:1004C00003C091E090936000813069F490916900DD
:1004D000911109C0E2E6F0E090819F5F908398312E
:1004E00010F010926200813069F4909169009130AF
:1004F00049F4E2E6F0E091819F5F91839C3310F034
:10050000109263008130D1F5809169008230B1F59D
:10051000E2E6F0E082818F5F82838C3378F1109283
:10052000640008958091720090917300892B81F08E
:100530008BE78A95F1F78091720090917300019793
:10054000909373008093720010926B0010926A0077
:100550008091790090917A00892B81F02BE72A9580
:10056000F1F78091790090917A00019790937A0049
:100570008093790010926B0010926A000895CA99D6
:1005800067C08091740090917500883E23E09207C7
:1005900040F4019690937500809374008BE78A95E0
:1005A000F1F78091740090917500883E934061F45A
:1005B00080916E0090916F00892B31F488E290E079
:1005C00090936F0080936E0080916C0090916D000D
:1005D000892B09F069C088E290E090936D008093C8
:1005E0006C0080916100811102C010926000813026
:1005F00071F49091690091110AC0E2E6F0E09081F7
:1006000091509083983118F097E190936200813077
:1006100071F490916900913051F4E2E6F0E091813B
:10062000915091839C3318F09BE390936300813049
:10063000D9F5809169008230B9F5E2E6F0E0828177
:10064000815082838C3380F18BE380936400089522
:1006500080916C0090916D00892B81F08BE78A95D9
:10066000F1F780916C0090916D00019790936D006F
:1006700080936C00109275001092740080916E004F
:1006800090916F00892B81F02BE72A95F1F78091EB
:100690006E0090916F00019790936F0080936E00B1
:1006A000109275001092740008950E9449000E94F3
:1006B00088010E942B020E94BF0280916100882362
:1006C00019F0813021F0F3CF0E946D00F0CF0E942D
:1006D0002D01EDCF1F920F920FB60F9211248F9321
:1006E000EF93FF93809168008F5F809368008E3155
:1006F00029F5E5E6F0E082818F5F82831092680041
:100700008C3390F081818F5F818312828C3320F053
:1007100080818F5F8083118280916500883120F015
:10072000E5E6F0E0108211828091670080FD04C050
:1007300081E08093760002C010927600FF91EF91E5
:100740008F910F900FBE0F901F90189597FB072E5B
:1007500016F4009407D077FD09D00E94BA0307FC75
:1007600005D03EF4909581959F4F089570956195C1
:100770007F4F0895AA1BBB1B51E107C0AA1FBB1FD7
:10078000A617B70710F0A61BB70B881F991F5A951D
:10079000A9F780959095BC01CD010895F894FFCFFD
:0207A000010155
:00000001FF
